:100000000C945D000C9485000C9485000C94850084
:100010000C9485000C9485000C9485000C9485004C
:100020000C9485000C9485000C9485000C9485003C
:100030000C9485000C9485000C9485000C9485002C
:100040000C942B050C9485000C949B050C94750561
:100050000C9485000C9485000C9485000C9485000C
:100060000C94CD050C9485000000000024002700AE
:100070002A0000000000250028002B0004040404CE
:100080000404040402020202020203030303030342
:10009000010204081020408001020408102001021F
:1000A00004081020000000080002010000030407FB
:1000B0000000000000000000EC0611241FBECFEF7E
:1000C000D8E0DEBFCDBF11E0A0E0B1E0E8EBF8E1A1
:1000D00002C005900D92A43DB107D9F723E0A4ED2D
:1000E000B1E001C01D92A636B207E1F710E0CDE500
:1000F000D0E004C02197FE010E947509CC35D107DC
:10010000C9F70E9434070C945A0C0C94000090E03C
:10011000FC01EC55FF4F2491FC01E057FF4F349157
:10012000FC01E458FF4FE491EE23C9F0222339F09B
:10013000233001F1A8F4213019F1223029F1F0E047
:10014000EE0FFF1FEE58FF4FA591B4918FB7F894B3
:10015000EC91611126C030953E233C938FBF0895EA
:100160002730A9F02830C9F0243049F78091800069
:100170008F7D03C0809180008F7780938000DFCFD8
:1001800084B58F7784BDDBCF84B58F7DFBCF809125
:10019000B0008F778093B000D2CF8091B0008F7D78
:1001A000F9CF3E2BDACF3FB7F8948091AD02909112
:1001B000AE02A091AF02B091B00226B5A89B05C0D7
:1001C0002F3F19F00196A11DB11D3FBFBA2FA92FD6
:1001D000982F8827BC01CD01620F711D811D911DD3
:1001E00042E0660F771F881F991F4A95D1F708953F
:1001F0008F929F92AF92BF92CF92DF92EF92FF9237
:100200004B015C010E94D3006B017C010E94D30072
:100210006C197D098E099F09683E7340810591051F
:10022000A8F321E0821A9108A108B10888EEC80E4F
:1002300083E0D81EE11CF11C81149104A104B104D7
:1002400029F7FF90EF90DF90CF90BF90AF909F90F5
:100250008F90089508950895AF92BF92CF92DF9244
:10026000EF92FF920F931F93CF93DF936C017B016B
:100270008B01040F151FEB015E01AE18BF08C017FC
:10028000D10759F06991D601ED91FC910190F0816F
:10029000E02DC6010995892B79F7C501DF91CF9132
:1002A0001F910F91FF90EF90DF90CF90BF90AF9094
:1002B0000895FC01538D448D252F30E0842F90E06C
:1002C000821B930B541710F0CF9608950197089551
:1002D000FC01918D828D981761F0A28DAE0FBF2F1A
:1002E000B11D5D968C91928D9F5F9F73928F90E070
:1002F00008958FEF9FEF0895FC01918D828D9817DF
:1003000031F0828DE80FF11D858D90E008958FEF1B
:100310009FEF0895FC01918D228D892F90E0805CE4
:100320009F4F821B91098F739927089581EB92E06B
:100330000E948A0121E0892B09F420E0822F089590
:1003400080E090E0892B29F00E94960181110C94A5
:1003500000000895FC01A48DA80FB92FB11DA35A68
:10036000BF4F2C91848D90E001968F739927848FD5
:10037000A689B7892C93A089B1898C9183708064F8
:100380008C93938D848D981306C00288F389E02D99
:1003900080818F7D80830895EF92FF920F931F934A
:1003A000CF93DF93EC0181E0888F9B8D8C8D981328
:1003B0001AC0E889F989808185FF15C09FB7F89434
:1003C000EE89FF896083E889F98980818370806480
:1003D00080839FBF81E090E0DF91CF911F910F91CB
:1003E000FF90EF900895F62E0B8D10E00F5F1F4FDA
:1003F0000F731127E02E8C8D8E110CC00FB607FCE9
:10040000FACFE889F989808185FFF5CFCE010E9476
:10041000AA01F1CFEB8DEC0FFD2FF11DE35AFF4F39
:10042000F0829FB7F8940B8FEA89FB898081806204
:10043000CFCFCF93DF93EC01888D8823B9F0AA89C1
:10044000BB89E889F9898C9185FD03C0808186FD8F
:100450000DC00FB607FCF7CF8C9185FFF2CF8081DE
:1004600085FFEDCFCE010E94AA01E9CFDF91CF91A8
:100470000895089520912902260F3327331F213232
:100480003105ECF420917202FC0190E080E0243010
:1004900069F082E00895A09129022191AC01475FA3
:1004A0005D4FA40FB52FB11D2C930196861798F3BD
:1004B00080912902680F6093290280E0089581E00D
:1004C00008951092720281E08093710210924C02A2
:1004D00061E082E10E94870061E083E10E94870081
:1004E000E9EBF0E080818E7F808380818D7F808347
:1004F00088E48093B80085E48093BC000895CF938E
:10050000DF9391E0909308028823B9F0C091B8007E
:10051000D091BA008091BC008A7B8093BC0060E0DF
:1005200082E10E94870060E083E10E9487000E94D0
:100530006102D093BA00C093B800DF91CF910895C3
:100540000895E091A1028091A002E81730F4F0E054
:10055000E851FE4F808190E008958FEF9FEF08955E
:100560009091A1028091A0022FEF3FEF981748F4DD
:10057000E92FF0E0E851FE4F208130E09F5F90933B
:10058000A102C90108958091A0029091A102891B46
:10059000990B0895CF92DF92EF92FF920F931F93E2
:1005A000CF93DF937C01CB018A0120917802222333
:1005B00089F0EB016B01C40ED51ECC15DD0569F089
:1005C0006991D701ED91FC910190F081E02DC70177
:1005D0000995F3CF642F0E943A02C801DF91CF91B1
:1005E0001F910F91FF90EF90DF90CF900895CF93E0
:1005F000DF931F92CDB7DEB7698320917802222363
:10060000F9F020919E02203258F021E030E0FC0108
:100610003383228390E080E00F90DF91CF910895A3
:1006200080919F02E82FF0E0E758FD4F9981908379
:100630008F5F80939F0280939E0281E090E0ECCFD9
:1006400061E0CE0101960E943A02F7CFCF92DF928D
:10065000EF92FF920F931F93CF93DF93FC01C4811E
:1006600021E020937802C093990210929F02109289
:100670009E028385682B8EE493E00E94F702D0915E
:100680009E02D13208F092C00E94D3006B017C011F
:1006900080917202811165C082E08093720281E0D4
:1006A000809371028FEF8093700210926F02D0934B
:1006B0006E02A9E7B2E0EEE4F2E080E0D81385C074
:1006C00010924D0280914D02CC0FC82BC0934D0269
:1006D00080914C02813009F07CC010924C020E9443
:1006E000D3006B017C0180914D028093BB0080910F
:1006F000740290917502A0917602B0917702892BD5
:100700008A2B8B2B99F00E94D300009174021091D8
:10071000750220917602309177026C197D098E095D
:100720009F090617170728073907E0F18091BC00D9
:1007300083FDD9CF85EC8093BC000E94D3006B0170
:100740007C0180917202823009F445C08091700270
:100750008F3F61F180917002803241F1809170028F
:1007600025C08091740290917502A0917602B0919B
:100770007702892B8A2B8B2B09F48ACF0E94D30016
:1007800000917402109175022091760230917702E7
:100790006C197D098E099F09061717072807390765
:1007A00008F076CF809173020E947F0210929F0220
:1007B00010929E0210927802DF91CF911F910F91BB
:1007C000FF90EF90DF90CF9008959D9191938F5F70
:1007D00075CF85EEB0CF8091740290917502A09193
:1007E0007602B0917702892B8A2B8B2B09F4A9CF43
:1007F0000E94D3000091740210917502209176023C
:10080000309177026C197D098E099F090617170729
:100810002807390708F095CFC5CF90E080E008950C
:100820000F931F93CF938C01C62F0E9426036C2F2A
:100830006460C8010E9426036C2F6B7FC8010E9470
:10084000260383EC90E00197F1F7CF911F910F9170
:1008500008950F931F93CF93DF938C01D62FC42F4E
:10086000607F642B0E94100480E1D89FB0011124A6
:100870006C2BC801DF91CF911F910F910C94100444
:10088000CF93DF93CDB7DEB728970FB6F894DEBFCE
:100890000FBECDBF98E0E0E0F1E0DE0111960190DF
:1008A0000D929A95E1F790916203961708F46FEF15
:1008B000262F30E0220F331F41E050E04C0F5D1F28
:1008C000240F351FF9016081680F606840E08AE5F8
:1008D00093E028960FB6F894DEBF0FBECDBFDF9130
:1008E000CF910C94290441E00E94290481E090E01A
:1008F0000895FB0101900020E9F73197AF01461BF5
:10090000570BDC01ED91FC910280F381E02D0994FD
:10091000CF93DF93BC0181EB92E00E947904EC015C
:1009200068E371E081EB92E00E9479048C0F9D1FD7
:10093000DF91CF91089585ED8093BC008091740282
:1009400090917502A0917602B09177020796A11D51
:10095000B11D23E0B695A795979587952A95D1F770
:100960002091BC0024FD03C01092720208954091B2
:100970007402509175026091760270917702452B56
:10098000462B472B69F30097A105B10541F02AE2F8
:100990002A95F1F700C00197A109B109E1CF809133
:1009A00073020C947F0261E082E00E944004809117
:1009B000A5028F938091A4028F938BE391E09F9384
:1009C0008F9384ED91E09F938F930E94820964ED51
:1009D00071E08AE593E00E9479048091A4029091ED
:1009E000A5020F900F900F900F900F900F908135F0
:1009F0009105A4F082E491E00E94880461E088E01F
:100A00000E9440046AE571E084ED91E00E947B0958
:100A100064ED71E08AE593E00C94790488978997F6
:100A200058F485E691E00E94880461E088E00E9425
:100A300040046EE771E0E8CF89E891E00E94880405
:100A400061E082E00E94870061E088E00E9440044B
:100A500068EA71E0D9CF1F920F920FB60F9211245E
:100A60002F933F938F939F93AF93BF938091A9024E
:100A70009091AA02A091AB02B091AC023091A80271
:100A800023E0230F2D3758F50196A11DB11D2093AA
:100A9000A8028093A9029093AA02A093AB02B093FC
:100AA000AC028091AD029091AE02A091AF02B091E4
:100AB000B0020196A11DB11D8093AD029093AE02CC
:100AC000A093AF02B093B002BF91AF919F918F916D
:100AD0003F912F910F900FBE0F901F90189526E811
:100AE000230F0296A11DB11DD2CF1F920F920FB6F8
:100AF0000F9211242F933F934F935F936F937F93A4
:100B00008F939F93AF93BF93EF93FF9381EB92E00B
:100B10000E94AA01FF91EF91BF91AF919F918F9198
:100B20007F916F915F914F913F912F910F900FBEE9
:100B30000F901F9018951F920F920FB60F921124CD
:100B40002F938F939F93EF93FF93E091C102F091C6
:100B5000C2028081E091C702F091C80282FD1BC0F1
:100B600090818091CA028F5F8F732091CB02821790
:100B700041F0E091CA02F0E0EF54FD4F958F809371
:100B8000CA02FF91EF919F918F912F910F900FBE0D
:100B90000F901F9018958081F4CF1F920F920FB67F
:100BA0000F9211242F933F934F935F936F937F93F3
:100BB0008F939F93AF93BF93EF93FF938091B9006F
:100BC000887F803609F44AC0F0F5883209F4A7C05E
:100BD00018F5803109F49BC0B8F4882309F4F9C0F2
:100BE000883009F494C0FF91EF91BF91AF919F912C
:100BF0008F917F916F915F914F913F912F910F90C6
:100C00000FBE0F901F901895883109F488C080326C
:100C100051F78093700214C0803409F49DC040F4F1
:100C20008033B9F38833F9F68093700285ECB0C055
:100C3000803509F485C0883509F496C0883499F662
:100C40000E949B04D0CF883909F48CC038F58837CE
:100C500029F050F4883611F0803729F683E080932C
:100C6000720210924B0257C0883809F47BC0803959
:100C700019F0803809F0B7CF80914B02803208F02C
:100C800071C0E0914B0281E08E0F80934B02809106
:100C9000BB00F0E0E55DFD4F80833DC0803B39F057
:100CA000E0F4803A09F479C0883A09F09CCF84E0F6
:100CB0008093720210922A0210922902E0919C0203
:100CC000F0919D0209958091290281110FC081E068
:100CD000809329021092090209C0803C09F4A6CF32
:100CE000883C09F4A3CF883B09F07DCFE0912A022C
:100CF00081E08E0F80932A02F0E0E75FFD4F808154
:100D00008093BB0090912A028091290229C0809192
:100D10004D028093BB0085EC8093BC0064CF909122
:100D20006F0280916E02981758F5E0916F0281E092
:100D30008E0F80936F02F0E0E25BFD4F8081E9CF80
:100D4000E0916F0281E08E0F80936F028091BB0073
:100D5000F0E0E25BFD4F808390916F0280916E0224
:100D60009817C8F285E8D8CFE0916F0281E08E0F26
:100D700080936F028091BB00F0E0E25BFD4F8083C7
:100D80008091710281115CCF81E080934C0284EAF2
:100D90008093BC001092720226CF85EC8093BC0039
:100DA0001092720280914B02803230F4E0914B023B
:100DB000F0E0E55DFD4F108260914B0270E0E09144
:100DC0009A02F0919B028BE292E0099510924B02FD
:100DD0000ACF1092700234CFE1EBF2E0138212825C
:100DE00088EE93E0A0E0B0E084839583A683B78388
:100DF0002CE031E03183208325EC30E035872487F7
:100E000024EC30E03787268720EC30E0318B208BD4
:100E100021EC30E0338B228B22EC30E0358B248BBD
:100E200026EC30E0378B268B118E128E138E148EAB
:100E3000EEE4F3E01382128284839583A683B78362
:100E40008EE191E091838083EAE5F3E013821282E0
:100E500080E391E09183808380E2848380E18187D5
:100E600082E0828713860895CF93DF93CDB7DEB7F4
:100E7000A1970FB6F894DEBF0FBECDBF789484B5AE
:100E8000826084BD84B5816084BD85B5826085BD86
:100E900085B5816085BD80916E00816080936E0014
:100EA0001092810080918100826080938100809106
:100EB00081008160809381008091800081608093B7
:100EC00080008091B10084608093B1008091B00077
:100ED00081608093B00080917A00846080937A0072
:100EE00080917A00826080937A0080917A0081609C
:100EF00080937A0080917A00806880937A001092C3
:100F0000C100E091C102F091C20282E08083E091D1
:100F1000BD02F091BE021082E091BF02F091C002CA
:100F20008FEC80831092C902E091C502F091C60255
:100F300086E08083E091C302F091C40280818061E9
:100F40008083E091C302F091C40280818860808335
:100F5000E091C302F091C402808180688083E091B7
:100F6000C302F091C40280818F7D8083E2E9F0E0CA
:100F70002491EEE7F0E08491882399F090E0880FC7
:100F8000991FFC01E859FF4FA591B491FC01EE585F
:100F9000FF4F859194918FB7F894EC91E22BEC93ED
:100FA0008FBF1092A1021092A00210929F02109285
:100FB0009E020E9461028AE291E090939D028093DA
:100FC0009C028BE291E090939B0280939A02109294
:100FD0005F0380916403823018F098E090935F0380
:100FE0008093620362E370E080E090E00E94F8008A
:100FF000609165038AE593E00E94260368EE73E042
:1010000080E090E00E94F80060E38AE593E00E94AF
:1010100010040BE416E4C8010197F1F760E38AE5D8
:1010200093E00E941004C8010197F1F760E38AE59C
:1010300093E00E94100483E592E00197F1F760E2EB
:101040008AE593E00E94100460915F03606240E0D3
:101050008AE593E00E94290484E08093600340E0E5
:101060006CE08AE593E00E94290440E061E08AE5B3
:1010700093E00E9429040BE31FE1C8010197F1F7F7
:1010800082E08093610340E066E08AE593E00E949D
:10109000290440E062E08AE593E00E942904C80147
:1010A0000197F1F760E082E00E94400462EB71E09A
:1010B0008AE593E00E94790460EC71E081EB92E0B4
:1010C0000E947904C090A402D090A5020D2C000CBF
:1010D000EE08FF08F7FE8FC06DE281EB92E00E9400
:1010E000CC0122273327A9012C193D094E095F099C
:1010F00019A2CE0181967C017AE0872E912CA12C39
:10110000B12CCA01B901A50194010E943509605DA5
:10111000F70162937F01211531054105510589F7DA
:10112000E114F10429F0B70181EB92E00E94790407
:1011300081ED91E00E9488040E94D30480E4F82E9F
:1011400088248A9493E0992EA12CB12C20E0C22E01
:1011500020E0D22EF0927C0080917A00806480930F
:101160007A0080917A0086FDFCCF00917800109182
:1011700079001093A7020093A6029801ACE9BFEF93
:101180000E946609A50194010E9416092C593F4F3F
:101190004F4F5F4F3093A5022093A4028091A2028B
:1011A0009091A3028017910751F00E94D30480917F
:1011B000A6029091A7029093A3028093A20280912D
:1011C000A4029091A502CC9724F060E082E00E94F6
:1011D00087006AE070E080E090E00E94F800C114AF
:1011E000D10409F4B7CF0E949601882309F4B2CF45
:1011F0000E940000AFCFA701960119A2CE018196EF
:101200007C016AE0862E912CA12CB12CCA01B90177
:10121000A50194010E943509605DF70162937F0189
:10122000211531054105510589F77ACF052E97FB28
:101230001EF400940E942D0957FD07D00E94350925
:1012400007FC03D04EF40C942D0950954095309531
:1012500021953F4F4F4F5F4F089590958095709522
:1012600061957F4F8F4F9F4F0895A1E21A2EAA1BC1
:10127000BB1BFD010DC0AA1FBB1FEE1FFF1FA21746
:10128000B307E407F50720F0A21BB30BE40BF50B43
:10129000661F771F881F991F1A9469F760957095CC
:1012A000809590959B01AC01BD01CF010895A29F4F
:1012B000B001B39FC001A39F700D811D1124911D2A
:1012C000B29F700D811D1124911D08950E94570930
:1012D000332312F48A1B9B0B0C9470090E9457094C
:1012E000B7FF0895821B930B0895EE0FFF1F059023
:1012F000F491E02D0994FB01DC0101900D92002096
:10130000E1F70895AEE0B0E0E8E8F9E00C94310CC4
:101310000D891E8986E08C831A8309838FEF9FE7EE
:101320009E838D83AE01475E5F4F6F89788DCE01BE
:1013300001960E94A5092F813885020F131FF8011D
:1013400010822E96E4E00C944D0CABE0B0E0EBEA9A
:10135000F9E00C94230C7C013B018A01FC0117820B
:101360001682838181FFC8C1CE0101965C01F7011D
:101370009381F30193FD859193FF81913F01882330
:1013800009F453C1853239F493FD859193FF81911E
:101390003F01853229F4B70190E00E94950BE7CF19
:1013A000912C212C312CFFE1F31538F08B3211F107
:1013B00090F4803209F1833229F137FC3CC020EDF2
:1013C000280F2A3050F536FE20C08AE0989E200D66
:1013D0001124922E06C08D3291F0803371F76894FB
:1013E00030F8F30193FD859193FF81913F018111C5
:1013F000DACF21C0689431F8689432F8F2CF68945B
:1014000033F8EFCF689434F8ECCFEAE02E9E200D4D
:101410001124222E689435F8E4CF8E3229F436FC5C
:1014200004C1689436F8DDCF8C3619F4689437F827
:10143000D8CF8836B1F2982F9F7D95549330E0F045
:101440008336A1F18337C1F1833509F063C02801E8
:10145000F2E04F0E511CF801C080D180692D70E080
:1014600036FC02C06FEF7FEFC6010E947F0B4C017C
:10147000689437F882010AC00C5F1F4FFFE3F983BD
:1014800088248394912C6501E89437F833FE2DC0AD
:10149000522C8114910471F5552009F468CFB701DD
:1014A00080E290E00E94950B5A94F6CFF80180817B
:1014B00089830E5F1F4FE4CF2801F2E04F0E511CCD
:1014C000F801C080D180692D70E036FC02C06FEF5A
:1014D0007FEFC6010E948A0B4C018201D5CFB70174
:1014E00080E290E00E94950B2A942814190409F0D8
:1014F000B0F7CECFF60137FC859137FE81916F01B1
:10150000B70190E00E94950B51105A94F1E08F1AA8
:101510009108BFCF843619F0893609F077C0F801F9
:1015200037FE6BC060817181828193810C5F1F4F98
:10153000F32DFF763F2E97FF09C09095809570950B
:1015400061957F4F8F4F9F4F689437F82AE030E0C6
:10155000A5010E94C50BC82ECA188C2C432C36FE40
:101560000CC0E89440F8C91440F434FE05C032FCC5
:1015700003C0F32DFE7E4F2E892C44FE95C0FE0144
:10158000EC0DF11D8081803309F087C0242D297E68
:10159000422E842D8870582E43FC95C040FE8FC08B
:1015A0009C2C821418F42C0C922C981844FE91C098
:1015B000B70180E390E00E94950B42FE09C088E7E6
:1015C00090E041FE02C088E590E0B7010E94950BD3
:1015D000C91408F48AC0CA94D12C9FEFC91AD90A39
:1015E000CA0CDB1CF60182916F01B70190E00E94EA
:1015F000950BAC14BD04B1F74FCF60817181072EFC
:10160000000C880B990B0E5F1F4F92CFD32CE894E0
:10161000D4F82AE030E0853739F1232D297FD22E06
:101620008F3601F148F48835A9F0F701868197815A
:101630002B96E2E10C943F0C803749F08837A9F7EC
:10164000D4FE02C06894D2F820E130E00DC0689466
:10165000D4F8F6CF34FE03C0822F8660D82E20E166
:1016600032E002C028E030E0F801D7FE0FC0608110
:101670007181828193810C5F1F4FA5010E94C50B70
:10168000C82ECA183D2CE89437F867CF6081718165
:1016900090E080E00E5F1F4FF0CF42FC02C08394C9
:1016A00078CF8394839475CF842D867809F471CF95
:1016B000F6CFB70180E290E00E94950B83948214EC
:1016C000C0F3512C73CF522C5818821408F46ECFEB
:1016D000F8CF842D867809F47BCF8BE241FE80E23F
:1016E00047FC8DE2B70190E071CFB70180E390E055
:1016F0000E94950B9A946CCF8FEF9FEF99CFFC01CE
:101700000590615070400110D8F7809590958E0F2C
:101710009F1F0895FC016150704001900110D8F79F
:10172000809590958E0F9F1F08950F931F93CF93D1
:10173000DF93182F092FEB018B8181FD09C01FEF6B
:101740000FEF812F902FDF91CF911F910F9108956F
:1017500082FF14C02E813F818C819D81281739071B
:101760003CF4E881F981CF01019699838883108345
:101770008E819F8101969F838E83E3CFE885F985D3
:10178000812F0995892BA1F3DACFFA01AA272830F6
:1017900051F1203181F1E8946F936E7F6E5F7F4F3E
:1017A0008F4F9F4FAF4FB1E03ED0B4E03CD0670FBA
:1017B000781F891F9A1FA11D680F791F8A1F911D0D
:1017C000A11D6A0F711D811D911DA11D20D009F45D
:1017D00068943F912AE0269F11243019305D31939F
:1017E000DEF6CF010895462F4770405D4193B3E088
:1017F0000FD0C9F7F6CF462F4F70405D4A3318F02F
:10180000495D31FD4052419302D0A9F7EACFB4E0DF
:10181000A6959795879577956795BA95C9F7009797
:101820006105710508959B01AC010A2E0694579538
:10183000479537952795BA95C9F7620F731F841F8F
:10184000951FA01D08952F923F924F925F926F9225
:101850007F928F929F92AF92BF92CF92DF92EF9240
:10186000FF920F931F93CF93DF93CDB7DEB7CA1BC1
:10187000DB0B0FB6F894DEBF0FBECDBF09942A88EC
:10188000398848885F846E847D848C849B84AA8494
:10189000B984C884DF80EE80FD800C811B81AA8121
:1018A000B981CE0FD11D0FB6F894DEBF0FBECDBFEC
:0818B000ED010895F894FFCF4B
:1018B800000040001400540000000000CC012C017E
:1018C800590119028A0168017C0100000000F70231
:1018D800CA020D04A002C302B002A1020000000067
:1018E80073042C010D0439020D0A002533642025E8
:1018F80025005374617475733A20536F696C2069BD
:101908007320746F6F2077657400576574202020EA
:1019180020202020005374617475733A205065723A
:1019280066656374206D6F697374757265005065C0
:101938007266656374202020005374617475733A6D
:1019480020536F696C20746F6F20647279205B502C
:10195800554D50204F4E5D004472792020202020A4
:101968002000536F696C204D6F6973747572650040
:10197800536F696C204D6F697374757265203D20D3
:041988000020250016
:00000001FF
